:100000000A128A11F62C00308A000408840A82073A
:10001000003441344434433420345234653473342E
:0A00200075346C3474343A34003443
:1009D600F000EE2CEE2C0130F002031DF32CF42C6B
:1009E600EE2CF52C0800AA01AB01AC01AD01AE015D
:1009F600AF01B001B101B20183010A128A11CC2EF6
:100A06007108831203138800071087141E300A1218
:100A16008A11EB240A128A11831203138710080025
:100A26007108831203138800071487141E300A12F4
:100A36008A11EB240A128A11831203138710080005
:100A4600F6007608F400F5017408F1007508F20066
:100A56000A128A1103250A128A11482D7308840086
:100A66000A128A1103200A128A11F400F501740889
:100A7600F1007508F2000A128A1113250A128A116A
:100A86000130F4007408F307482D730884000A1235
:100A96008A1103200A128A110038031D532D542D82
:100AA600312D552D0800831203132308F300220865
:100AB600F2002108F1002008F0000030F7000030B5
:100AC600F6000030F5000F30F4000A128A119F2557
:100AD6000A128A11730883120313A3007208A20074
:100AE6007108A1007008A000792D792D0130A400AD
:100AF6000030A5000030A6000030A7002408A002A0
:100B06002508031C250F882D892DA1022608031C04
:100B1600260F8E2D8F2DA2022708031C270F942D3A
:100B2600952DA3022308220421042004031D9C2DD5
:100B36009D2D792D9E2D08000030FC000030FB0015
:100B46000030FA000030F900A82D701CAB2DAC2D3A
:100B5600C42D7408F907750803110318013E03191B
:100B6600B52DFA07760803110318013E0319BC2DAB
:100B7600FB07770803110318013E0319C32DFC0771
:100B8600C42D0130F8000310F40DF50DF60DF70D28
:100B9600F80BC62D01300310F30CF20CF10CF00C1F
:100BA600FF3E031DCE2D7308720471047004031DED
:100BB600DD2DDE2DA82DDF2D7C08F3007B08F2004D
:100BC6007A08F1007908F000E82D080003100030DB
:100BD60003180130F600F31FF12DF22DFB2DF2095B
:100BE600F309F20A0319F30AF6010314F60DFB2DB5
:100BF600F11FFE2DFF2D052EF009F109F00A03194C
:100C0600F10A052E7108700403190A2E0B2E412EC7
:100C1600F5010314F50D1B2E01300310F00DF10D37
:100C2600FF3E031D102E0130F4007408F5071B2E3D
:100C3600F11F1E2E1F2E0F2E212E212E710873023C
:100C4600031D272E70087202031C2A2E2B2E322E0D
:100C56007008F2027108031CF303F302322E01300E
:100C66000310F10CF00CFF3E031D332E0130F5028C
:100C7600031D3E2E3F2E212E412E412E7608031DAA
:100C8600452E4B2EF209F309F20A0319F30A4B2EED
:100C96007308F101F1077208F001F007522E0800FF
:100CA6000310003003180130F600F11F5B2E5C2E96
:100CB600652EF009F109F00A0319F10AF601031489
:100CC600F60D652EF31F682E692E722EF209F309B2
:100CD600F20A0319F30A0130F4007408F60600302C
:100CE600F7000030F8007108700403197B2E7C2E83
:100CF600BA2EF5010314F50D8C2E01300310F00DFC
:100D0600F10DFF3E031D812E0130F4007408F50736
:100D16008C2EF11F8F2E902E802E922E922E013029
:100D26000310F70DF80DFF3E031D932E7108730295
:100D3600031D9F2E70087202031CA22EA32EAB2E3B
:100D46007008F2027108031CF303F3027714AB2E4A
:100D560001300310F10CF00CFF3E031DAC2E0130E8
:100D6600F502031DB72EB82E922EBA2EBA2E76088D
:100D7600031DBE2EC42EF709F809F70A0319F80A4F
:100D8600C42E7808F101F1077708F001F007CB2EA1
:100D96000800FF3083160313850087018801303071
:100DA600F1000030F2000A128A1103250A128A1194
:100DB60023300A128A11EB240A128A113030F1000C
:100DC6000030F2000A128A1103250A128A11233012
:100DD6000A128A11EB240A128A113030F10000300F
:100DE600F2000A128A1103250A128A1123300A1206
:100DF6008A11EB240A128A113830F1000030F20011
:100E06000A128A1103250A128A110630F1000030EF
:100E1600F2000A128A1103250A128A110C30F10017
:100E26000030F2000A128A1103250A128A110130D3
:100E3600F1000030F2000A128A1103250A128A1103
:100E4600003083120313A3000030A2000030A1007B
:100E56001E30A0000A128A1156250A128A11013084
:100E660083120313A8002808F30080300A128A119F
:100E760023250A128A118130831203139F008030C2
:100E8600831603139F00472F83121F154A2F1F191E
:100E96004D2F4E2F4A2F4F2F1E08A800A9012808B4
:100EA600B1002908B2003208A9003108A8000830AC
:100EB600FF000310A80DA90DFF0B5C2F2808B10039
:100EC6002908B200831603131E0883120313310781
:100ED600B10032080318320AB2000030AF00003009
:100EE600B0003008803AFF0080307F02031D7D2F5E
:100EF60004302F02031C802F812F832FC92FC92F67
:100F06000A30F0000030F100831203133208F301B7
:100F1600F3073108F201F2070A128A11E9250A12CB
:100F26008A11700883120313A8002F082A3E840032
:100F36002808831380000A30F0000030F1003208E0
:100F4600F301F3073108F201F2070A128A11532658
:100F56000A128A11710883120313B201B2077008CC
:100F6600B101B1070130AF070318B00A0030B0076E
:100F76003008803AFF0080307F02031DC42F043002
:100F86002F02031CC72FC82F832FC92F8C30F100C7
:100F96000030F2000A128A1103250A128A11033060
:100FA60083120313AF000030B000B01FDB2FDC2F1D
:100FB600DE2F472F472F2F082A3E84008313000871
:100FC600303EF100003003180130F2000A128A1197
:100FD60013250A128A11FF3083120313AF07031871
:100FE600B00AFF30B007B01FF92FFA2FDE2F472FB8
:0A0FF600472F472F0A128A11002826
:02400E00393F38
:00000001FF
