:100000000A128A11582F00308A000408840A8207D5
:100010000034553441345234543420344D346F3428
:10002000643475346C346534203449346E34693446
:100030007434693461346C3469347A3465346434CA
:10004000203461346E346434203461346334743465
:100050006934763465340D340A340034523445340E
:10006000443420344C344534443420342D343E342C
:1000700020344F344E340D340A3400345234453475
:10008000443420342D343E3420344F344634463406
:060090000D340A340034B7
:100EB00083010A128A11B32FF0005E2F83120313ED
:100EC0000C1E632F642F5E2F652F70089900080099
:100ED00083120313981C6D2F6E2F722F1812181681
:100EE000722F722F8C1E752F762F722F772F1A0864
:100EF000792F080083160313071387178130990091
:100F000018151812831203139817831603139816D3
:100F10008312031318168316031318138312031373
:100F200018130800F200A52F720884000A128A1113
:100F300003200A128A110A128A115C270A128A11E6
:100F40000130F1007108F207A52F720884000A121F
:100F50008A1103200A128A110038031DB02FB12F05
:100F6000942FB22F08008316031386010A128A11E8
:100F70007A270A128A1101300A128A1192270A125C
:100F80008A11C22F0A128A1168270A128A11F300E5
:100F9000F4017308F5007408F60031307506760424
:100FA000031DD32FD42FE42F83120313861526306D
:100FB0000A128A1192270A128A110A300A128A1119
:100FC0005C270A128A11E42F303075067604031D5F
:100FD000EA2FEB2FC22F83120313861136300A1229
:100FE0008A1192270A128A110A300A128A115C2782
:100FF0000A128A11C22FC22FC22F0A128A11002888
:02400E003A3F37
:00000001FF
