:100000000A128A11992B00308A000408840A820798
:10001000003465346C3465346334743472346F3452
:100020006E3469346334573469346E3467347334EE
:0200300000349A
:1007320083010A128A112C2CF0009F2B83120313BF
:100742000C1EA42BA52B9F2BA62B7008990008002A
:100752007008831203178D00831603170C118C1374
:100762000C14831203170C08B62B080070088312AE
:1007720003178D0072088C00831603178C130C1557
:100782008B1355308D00AA308D008C148B17C92B1A
:10079200831203130D1ECE2BCF2BC92B0D12080073
:1007A2000310003003180130FD00F91FD92BDA2B9A
:1007B200E32BF809F909F80A0319F90AFD010314F0
:1007C200FD0DE32B7808F0007908F100F2018E307C
:1007D200FB007B08F3007D08FC007C08F4000A1291
:1007E2008A11CF240A128A117008F8007108F900E0
:1007F2007208FA00FC2B08001E2C7408F101F107A4
:100802007308F001F007750884000A128A110320A8
:100812000A128A11F6007608F2000A128A11B72328
:100822000A128A110130F3070318F40A0030F407A0
:100832000130F6007608F5071E2C750884000A12AE
:100842008A1103200A128A110038031D292C2A2C2E
:10085200FE2B2B2C0800003083120313C300003040
:10086200C4008030BD002530BE000A128A117A24ED
:100872000A128A110030F3000030F40001308312B2
:100882000313C2004208F5000A128A11FD230A125C
:100892008A116C2C831203134408F101F1074308F7
:1008A200F001F0070A128A11A9230A128A1183128F
:1008B2000313C2004208C50045080A128A119D238B
:1008C2000A128A11013083120313C3070318C40AE0
:1008D2000030C4076C2C831203134508FF3A031D32
:1008E200732C742C4B2C762C762C762C0A128A11B3
:1008F200002883160313071387170030831203138C
:10090200B0008030B100BF30B2003E08F901F907F3
:100912003D08F801F8070A128A11D1230A128A1136
:10092200780883120313A0007908A1007A08A200B4
:100932002430A300F430A4004730A5000A128A1123
:10094200EE250A128A11831203132008B30021082C
:10095200B4002208B5000A128A11B6260A128A11B8
:10096200831203133008BF003108C0003208C100EF
:100972003F08F0004008F1004108F2000A128A1113
:100982004A250A128A11700883160313990020302F
:100992009800903083120313980008007308031D17
:1009A200D32CDB2C720871047004031DD92CDA2CB1
:1009B200F12CDB2C0030F0000030F1000030F200AE
:1009C200492D492DF12C0130F5007508F30701304E
:1009D2000310F20CF10CF00CFF3E031DE92CF12C7C
:1009E200FE307205031DF62CF72CE42C0F2D0F2D73
:1009F2000130F5007508F3070130F00700300318E5
:100A02000130F107003003180130F2070130031002
:100A1200F20CF10CF00CFF3E031D082DFF307205A5
:100A2200031D142D152DF92C222D222D0130F30238
:100A320001300310F00DF10DF20DFF3E031D1A2DD2
:100A4200222DF11F252D262D172D7318292D2A2D24
:100A5200302DFF30F0057F30F105FF30F205031035
:100A6200F30C7308F500F601F70110300310F50DD1
:100A7200F60DF70DFF3E031D372D7508F0047608BD
:100A8200F1047708F2047408031D482D492DF2176A
:100A920008007008F4007108F5007208F6000310EF
:100AA200750D760DF7007708FD00FD08031D5A2D20
:100AB2005B2D652D0030F3000030F2000030F100B4
:100AC2000030F000ED2DED2D7008F4007108F500F6
:100AD2007208F60017300310F60CF50CF40CFF3E0A
:100AE200031D6C2D7408F7007708F800F117FF302A
:100AF200F005FF30F1050030F2057008F9007108C9
:100B0200FA007208FB00FC018E30FD02FD1F8A2DE7
:100B12008B2DB02D7D08803A8F3E0318912D922D9A
:100B22009D2D0030F3000030F2000030F100003063
:100B3200F000ED2DED2D9D2D01300310FC0CFB0C72
:100B4200FA0CF90CFF3E031D9E2D0130F4007408CF
:100B5200FD07031DAD2DAE2D9D2DD42DD42D1830A6
:100B62007D02031CB52DB62DCD2D0030F3000030D3
:100B7200F2000030F1000030F000ED2DED2DCD2D12
:100B82000130F4000310F90DFA0DFB0DFC0DF40B0E
:100B9200C32D0130FD02CD2DFD08031DD12DD22D17
:100BA200C12DD42DD42D7808031DD82DE42DF9099B
:100BB200FA09FB09FC09F90A0319FA0A0319FB0AE3
:100BC2000319FC0AE42D7C08F3007B08F2007A0882
:100BD200F1007908F000ED2D0800831203132308B9
:100BE200A6002408A7002508A8000310270D280D39
:100BF200A9002908AE00AE08031D002E012E092E01
:100C02000030A0000030A1000030A200B52EB52EA9
:100C12002008A6002108A7002208A8000310270D1B
:100C2200280DA9002908AF00AF08031D192E1A2E9E
:100C3200222E0030A0000030A1000030A200B52E0C
:100C4200B52E0030AB000030AC000030AD00893072
:100C52002F07A6002608AE022308A6002408A70034
:100C62002508A80010300310A80CA70CA60CFF3E04
:100C7200031D342E2608A9002908AF002008A6006B
:100C82002108A7002208A80010300310A80CA70C06
:100C9200A60CFF3E031D462E2608A9002908AF0612
:100CA2008030A6002608AF05A417FF30A305FF3049
:100CB200A4050030A505A117FF30A005FF30A1054E
:100CC2000030A2051830A6002608AA00682E0130BE
:100CD2000310AB0DAC0DAD0DFF3E031D692E2208B6
:100CE2002502031D7A2E21082402031D7A2E2008D4
:100CF2002302031C7D2E7E2E8A2E2008A3022108A9
:100D0200031C210FA4022208031C220AA5022B1491
:100D12008A2E01300310A30DA40DA50DFF3E031D65
:100D22008B2E0130AA02031D972E982E682E992E23
:100D32002B08F0002C08F1002D08F2002E08A60066
:100D42002608F3002F08A7002708F4000A128A11C8
:100D5200CF240A128A11700883120313A0007108AB
:100D6200A1007208A200B52E0800831203133008F6
:100D7200B6003108B7003208B8000310370D380D3D
:100D8200B9003908BC003308B6003408B70035088A
:100D9200B8000310370D380DB9003908BB003C0804
:100DA200031DD42EE52E3B083C020318D92EDA2E61
:100DB200ED2E3C03FF3A3B07B60019303602031C06
:100DC200E32EE42EED2EE52E3308B0003408B100F8
:100DD2003508B200FF2FFF2F3B08031DF12E012F14
:100DE2003C083B020318F62EF72E022F3B03FF3A74
:100DF2003C07B60019303602031C002F012F022FC8
:100E0200FF2F0630B6003608BA00B21F092F0A2F8C
:100E12000B2FBA17B51F0E2F0F2F102F3A17B1171E
:100E2200FF30B005FF30B1050030B205B417FF3016
:100E3200B305FF30B4050030B5053B083C0203188A
:100E4200232F242F552F252F01300310B30DB40D5E
:100E5200B50DFF3E031D262F0130BB023B083C06A9
:100E62000319342F352F4D2F0130BA023A080739B2
:100E7200031D3C2F3D2F252F4D2F4D2F4D2F013080
:100E82000310B20CB10CB00CFF3E031D412F013018
:100E9200B6003608BC074D2F3C083B06031D522FF7
:100EA200532F402F8C2F8C2F3C083B0203185A2FB4
:100EB2005B2F8C2F5C2F01300310B00DB10DB20DE2
:100EC200FF3E031D5D2F0130BC023B083C060319A7
:100ED2006B2F6C2F842F0130BA023A080739031D99
:100EE200732F742F5C2F842F842F842F01300310D3
:100EF200B50CB40CB30CFF3E031D782F0130B600C5
:100F02003608BB07842F3C083B06031D892F8A2F16
:100F1200772F8C2F8C2FBA1F8F2F902FA12FFF305E
:100F2200B006FF30B106FF30B2060130B007003024
:100F320003180130B107003003180130B207A12FA6
:100F42003A1FA42FA52FB62FFF30B306FF30B406E9
:100F5200FF30B5060130B307003003180130B40783
:100F6200003003180130B507B62F03100030031804
:100F72000130BA003008B307310803110318310AEF
:100F82000319C42FB407320803110318320A0319D4
:100F9200CB2FB507B51FCE2FCF2FE32FFF30B306D0
:100FA200FF30B406FF30B5060130B3070030031836
:100FB2000130B407003003180130B507BA01031439
:100FC200BA0DE32F3308F0003408F1003508F200BF
:100FD2003C08B6003608F3003A08B7003708F400B8
:100FE2000A128A11CF240A128A117008831203137B
:0E0FF200B0007108B1007208B200FF2F0800B5
:00000001FF
